:020000040800F2
:10000000880600209D010008A71C0008BB170008F7
:10001000A51C000809090008732100080000000061
:10002000000000000000000000000000AB1C000801
:100030000B09000800000000A91C0008AD1C000806
:10004000B7010008B7010008B7010008B7010008B0
:10005000B7010008B7010008B7010008B7010008A0
:10006000B7010008B7010008B7010008B701000890
:10007000B7010008B7010008B7010008B701000880
:10008000B7010008B7010008B7010008B701000870
:10009000B7010008B7010008B7010008B701000860
:1000A000B7010008B7010008B7010008B701000850
:1000B000B7010008B7010008B7010008B701000840
:1000C000B7010008B7010008B7010008B701000830
:1000D000B7010008B7010008B7010008B701000820
:1000E000B7010008B7010008B7010008B701000810
:1000F000B7010008B7010008B7010008B701000800
:10010000B7010008B7010008B7010008B7010008EF
:10011000B7010008B7010008B7010008B7010008DF
:10012000B7010008B7010008B7010008B7010008CF
:10013000B7010008B7010008B7010008B7010008BF
:10014000B7010008B7010008B7010008B7010008AF
:10015000B7010008B7010008B7010008B70100089F
:10016000B7010008B7010008B7010008B70100088F
:10017000B7010008B7010008B7010008000000003F
:10018000B7010008B7010008DFF80CD000F0AAFBA7
:1001900000480047F93D00088806002006488047CF
:1001A00006480047FEE7FEE7FEE7FEE7FEE7FEE75C
:1001B000FEE7FEE7FEE7FEE7351D000889010008BF
:1001C0002DE9F05F0546002092469B46884606468C
:1001D000814640241BE0284641464746224600F01F
:1001E00022FA53465A46C01A914110D31146184676
:1001F000224600F009FA2D1A67EB01084F46224605
:100200000120002100F000FA17EB00094E41201EEA
:10021000A4F10104DFDC484631462A464346BDE8E6
:10022000F09FD2B201E000F8012B491EFBD27047CB
:100230000022F6E710B513460A4604461946FFF7B2
:10024000F0FF204610BD421C10F8011B0029FBD115
:10025000801A70472DE9FE4F804681EA0300C00FE7
:100260000C46009021F0004123F00045B8EB02005D
:10027000A94105D24046214690461C460B460246FF
:1002800023F00040104347D0270DC7F30A00C3F303
:100290000A510290401A019040286BDAC3F3130010
:1002A00040F4801B0098924620B10023D2EB030A51
:1002B00063EB0B0B01985946C0F14002504600F029
:1002C000A3F906460D4650465946019A00F0BBF97F
:1002D00010EB08006141002487EA115284EAE773B9
:1002E0001A4340D0009A62B3019A012A4FEA07529A
:1002F00015DC001B61EB02014FF0004202EA0752DD
:10030000CDE90042001C41F5801132462B4600F039
:10031000F2F903B0BDE8F08F40462146F9E7001B33
:1003200061EB0201001C41F5801300185B412018AD
:10033000A2F5001747EB030140EAD570B6196D41ED
:1003400011E06D084FEA360645EAC0754FEA0752DC
:10035000001B61EB0201001C41F5801149084FEAC6
:1003600030000019514132462B4603B0BDE8F04F32
:1003700000F0B2B90098012240000023D0EB020245
:1003800063EBE073009821464FEAE074B8EB00009D
:1003900061EB0401E9E783F000435BE781F0004192
:1003A00058E72DE9FE4F81EA030404F0004421F0F0
:1003B000004100944FF0000B23F0004350EA010489
:1003C0005ED052EA03045BD0C3F30A54C1F30A556A
:1003D0002C44A4F2F3340194A0FB0254C1F31301A2
:1003E00041F48011C3F3130343F4801301FB02446F
:1003F00000FB034E840A970A44EA815447EA835774
:10040000A4FB076802958D0A05FB07854FEA932C2C
:1004100004FB0C542705029D4FEA065847EA16379D
:10042000B5EB08056EEB070C870E920E47EA8117B5
:1004300042EA8312A7FB0201B6EB0B0164EB000456
:100440002B0D43EA0C335E1844EB1C50DA46514640
:10045000E7FB0201C5F313044FEA0B3343EA1453DD
:100460004FEA0432019C43EA0603A4F10C0402940F
:10047000009CCDE900B400F03EF903B0BDE8F08F78
:1004800000200146F9E72DE9F04D81EA030404F06C
:10049000004B21F0004514464FF0000A23F00041C4
:1004A00050EA050220D054EA01021DD0C5F30A57D4
:1004B0000246C5F31303C1F31300C1F30A5640F417
:1004C000801543F48013A7EB0608101BD64608F2EC
:1004D000FD3873EB050002D308F1010801E0921822
:1004E0005B41B8F1000F03DA00200146BDE8F08D52
:1004F00000204FF48011064684460EE0171B73EB74
:10050000050705D3121B63EB050306434CEA010CF8
:1005100049084FEA300092185B4150EA0107EDD1DB
:1005200052EA030012D082EA040083EA050108437C
:1005300005D0101BAB4106D20122002306E00022A9
:100540004FF0004302E06FF0010253101AEB060077
:100550004CEB085110EB0A0041EB0B01BDE8F04DEC
:1005600000F0BAB80EB540F2334102910021CDE956
:1005700000110A460B4600F0BEF803B000BD00F0C3
:10058000004230F000400AD0C10D01F56071C0F3A7
:10059000160042EA0151C20840071143704700208B
:1005A0000146704701F0004330B421F0004150EAA9
:1005B000010206D00A0DA2F56072C1F31301002AF0
:1005C00002DC30BC00207047440F44EAC104C10083
:1005D000E01830BC00EBC25000F047B830B50B4615
:1005E000014600202022012409E021FA02F59D4263
:1005F00005D303FA02F5491B04FA02F52844151E37
:10060000A2F10102F1DC30BD202A04DB203A00FA1D
:1006100002F1002070479140C2F1200320FA03F359
:10062000194390407047202A04DB203A21FA02F057
:100630000021704721FA02F3D040C2F1200291401C
:10064000084319467047202A06DBCB17203A41FAA7
:1006500002F043EAE07306E041FA02F3D040C2F14F
:10066000200291400843194670470029A8BF7047EF
:10067000401C490008BF20F00100704710B4B0FAD8
:1006800080FC00FA0CF050EA010404BF10BC704773
:1006900049B1CCF1200421FA04F411FA0CF118BF8D
:1006A000012121430843A3EB0C01CB1D4FEA00615C
:1006B0004FEA102042BF002010BC704700EBC3502F
:1006C00010440029A4BF10BC7047401C490008BF5B
:1006D00020F0010010BC704710B5141E73F1000427
:1006E00008DA401C41F1000192185B411A4301D124
:1006F00020F0010010BD2DE9F04D92469B4611B14E
:10070000B1FA81F202E0B0FA80F220329046FFF7AF
:100710007BFF04460F4640EA0A0041EA0B015346BC
:100720005A46084313D0114653EA010019D0C8F1C4
:1007300040025046FFF777FF05460E4650465946A1
:100740004246FFF761FF084305D0012004E0204640
:100750003946BDE8F08D0020054346EAE0762C439B
:1007600037430A986305E40AA0EB08000022FD0A5B
:1007700044EA47540A3002D500200146E9E7010562
:1007800010196941DDE9084500196941BDE8F04DDE
:10079000A2E770B521F0004303430CD0C1F30A5522
:1007A0000024D5EB040564EB0403D617AD1AB3415E
:1007B00002DB0020014670BD201841EB025170BDE4
:1007C0002DE9F04D00231A461B1A8A4103DB002055
:1007D0000146BDE8F08DC1F30A52C1F3130141F4A3
:1007E00080154FF0000BD10702D100186D41521E49
:1007F0000027044640F2FF11384601EB620A3E46EC
:100800008046024600204FF48011FFF70CFFC2190A
:100810007141BB1846EB0100B4EB030C75EB000C07
:1008200004D3E41A65EB000517460E46241908F1B7
:1008300001006D4180463428E3DDF91946EB0600DE
:10084000091BA84103D24FF0FF32134601E00022FA
:1008500013461BEB070046EB0A51BDE8F04DFFF7CE
:100860003BBF0EB5C10F80EAE0700844CA07002103
:1008700040F233438DE80E000A460B46FFF73BFF7C
:1008800003B000BDC1F30A52C1F3130140F2FF33BC
:1008900041F480119A4202DA00200146704740F28A
:1008A00033439A42A2F2334202DC5242FFF7BBBE0C
:1008B000FFF7AABE30B5041E71F1000404DB4FF04F
:1008C0000044404264EB0101141E73F1000405DB97
:1008D0001C464FF00043524263EB0403994208BFA9
:1008E000904230BD064C074D06E0E06840F0010341
:1008F00094E8070098471034AC42F6D3FFF748FC61
:10090000E845000808460008FEE770477047000009
:1009100070B5044600F0E6F80546601C02D00448B5
:100920000078044400F0DEF8401BA042FAD370BD0A
:10093000000000202DE9F84FDFF87CB100224FF0D5
:1009400001084FF0030A4FF00F090BF1040E00BF2E
:100950000B6808FA02F42340A3426ED14D68022DC1
:1009600001D0122D0ED1D50800EB850CDCF82050FB
:100970005607F70E09FA07F6B5430E69BE402E4337
:10098000CCF82060066855000F790AFA05FC07F0DC
:10099000030726EA0C06AF40374307604E68012E76
:1009A00005D0022E03D0112E01D0122E0ED1866852
:1009B000CF6826EA0C06AF40374387604668A643F7
:1009C0000C79C4F30014944034434460C6688C68C6
:1009D00026EA0C06AC403443C4604C68E40065D59C
:1009E000364C256845F480452560246822F00305CF
:1009F00004F480440094324C2E19D6F80848950728
:100A00002F0F09FA07F5AC432E4DA84201D100255E
:100A100024E02D4DA84201D101251FE02B4DA84215
:100A200001D102251AE02A4DA84201D1032515E083
:100A3000284DA84202D1042510E037E0264DA842F7
:100A400001D105250AE0254DA84201D1062505E082
:100A5000234DA84201D1072500E00825BD402543CC
:100A6000C6F80858DBF800405D464E689C43F60324
:100A700000D51C432C60DEF8004075464E689C4350
:100A8000B60300D51C432C600B4D08352C684E680E
:100A90009C43F60200D51C432C60074D0C352C6896
:100AA0004E689C43B60200D51C432C60521C102A91
:100AB000FFF44EAFBDE8F88F003C014044380240DF
:100AC00000300140000002400004024000080240E3
:100AD000000C0240001002400014024000180240C6
:100AE000001C0240014880687047000000000020A0
:100AF00070B504001BD094F83D00002520B984F89F
:100B00003C50204600F034FA242084F83D00206850
:100B1000016821F00101016000F082FB4D4A61682B
:100B2000914201D84C4900E04C49884201D2012051
:100B300070BD4B492368B0FBF1F15E6826F03F06BB
:100B40000E435E606368934206D94FF4967359432F
:100B50004FF47A73B1FBF3F12368491C1E6A26F047
:100B60003F06314319626168914210D84900401E26
:100B7000B0FBF1F2521CC2F30B02042A01D2042092
:100B800022E0B0FBF1F0401CC0F30B001CE0A368B6
:100B9000F3B301EBC10202EB0116421EB2FBF6F207
:100BA000521C42F48042120549D093B301EBC102BA
:100BB00002EB0111401EB0FBF1F0401CC0F30B0032
:100BC00040F4804040F400402168CA694CF6FF734D
:100BD0009A431043C861D4E90701084321680A68B1
:100BE00022F0C00210430860D4E9030101432068E9
:100BF000826848F2FF339A4311438160D4E90501CA
:100C000008432168CA6822F0FF021043C86001E06F
:100C10000EE016E02068016841F0010101602564E2
:100C2000202084F83D00256384F83E50002070BDEC
:100C300001EB4106421EB2FBF6F2521CB3E7012063
:100C4000C2E701EB4101401EB0FBF1F0401CC0F3D4
:100C50000B00B7E7A086010080841E0000093D005C
:100C600040420F002DE9F84F1F4690468A46044641
:100C7000DDF82890FFF736FF054694F83D00202860
:100C800075D1192301226C492046009500F082FE9F
:100C90000028F5D194F83C00012868D0012084F8A0
:100CA0003C0020680168C90703D1016841F00101D7
:100CB00001602068016821F400610160222084F84D
:100CC0003D00102084F83E0000262664C4F82480ED
:100CD0006785608D20855948E0622B464A4651461B
:100CE000204600F082FD002878D1208D544F68B155
:100CF000012814D002282068016816D041F48061D0
:100D00000160206841698069009087E0206841693E
:100D100081690091016841F4007101607EE0206802
:100D2000016821F480610160F0E721F480610160D5
:100D30002068016841F40061E2E7032848D80128EF
:100D40000AD0022814D04B4600223946204600958E
:100D500000F020FED8BB27E02A464946204600F096
:100D600098FEA0BB20680069616A08704DE061E0F0
:100D70004B46002239462046009500F00BFE30BB62
:100D80002068016841F40071016020680069616AAF
:100D90000870606A401C6062218D491E2185618D4A
:100DA000491E618521682EE02068016821F4806178
:100DB000016020680069616A0870606A401C6062B6
:100DC000208D401E2085608D401E6085D0E705E0A7
:100DD0002A464946204600F05CFE10B10120BDE8DD
:100DE000F88F20680069616A0870606A401C606260
:100DF000218D491E2185618D491E618521684A69C1
:100E0000D24352070AD409690170606A401C6062CB
:100E1000208D401E2085608D401E6085208D00281D
:100E20008BD1202084F83D0084F83E6084F83C603B
:100E30000020D4E70220D2E7020010000000FFFFEC
:100E4000040001002DE9F84F1F4690468A460446EB
:100E5000DDF82890FFF746FE054694F83D0020286F
:100E60007FD11923012240492046009500F092FDD0
:100E7000002876D194F83C00012872D0012084F833
:100E80003C0020680168C90703D1016841F00101F5
:100E900001602068016821F400610160212084F86C
:100EA0003D00102084F83E0000262664C4F824800B
:100EB0006785608D20852D48E0622B464A46514665
:100EC000204600F0FDFC90B92068416980690090DF
:100ED00036E02A464946204600F00EFE50B1206C0E
:100EE000042804D12068016841F4007101600120E8
:100EF000BDE8F88F606A216800780861606A401C6C
:100F00006062618D491E6185218D491E89B22185EE
:100F100022685369DB435B070BD451B10078106141
:100F2000606A401C6062608D401E6085208D401E9E
:100F300020852A464946204600F006FD0028CED1ED
:100F4000208D0028C5D154F83D0B016841F4007193
:100F50000160202004F81E09E67766770020C7E7C5
:100F6000FFE70220C4E70000020010000000FFFFBE
:100F700010B586B0044614216846FFF759F91349A5
:100F80002068884220D11248016841F002010160C6
:100F90000068694600F002000590C0200090122011
:100FA000019001200290032003900420049009483E
:100FB000FFF7C0FC06481030016841F400110160E1
:100FC000006800F40010059006B010BD0054004009
:100FD000303802400004024002488168027811441F
:100FE00081607047000000200B4810B5016841F493
:100FF00000710160016841F480610160016841F4A1
:1010000080710160032000F061F8002000F006F814
:1010100000F024F8002010BD003C024070B50D4DDA
:1010200004464FF47A712878B1FBF0F00A49096858
:10103000B1FBF0F000F0D4FA48B9102C07D200222E
:101040002146501E00F022F800206C6070BD012087
:1010500070BD0000000000200C0000200A4808B508
:10106000016841F480410160006800F48040009014
:101070000548001F016841F080510160006800F0E0
:101080008050009008BD000044380240F0B40E4B80
:101090001B680C46C3F30223C3F10705042D00D9D6
:1010A0000425191D072901D2002300E0DB1E0126BB
:1010B00006FA05F1491E214099409E40761E1640D1
:1010C0003143F0BC01F082B80CED00E0064900F0BD
:1010D000070208684FF6FF03184040EA0220034A5F
:1010E00010430860704700000CED00E00000FA05B6
:1010F0002DE9F0470E46050065D0DFF81481D8F8D9
:101100000000F7B200F00F00B04207D288F800707C
:10111000D8F8000000F00F00B04254D128683D4CD0
:10112000810712D5400703D5206840F4E0502060C5
:101130002878000703D5206840F4604020602068CC
:10114000A96820F0F000084320602878C0072DD05F
:10115000304968680839012812D0022813D00328C2
:1011600011D00968890700292DDA216821F00301CF
:1011700001432160FFF7B6FC814641F2883A0EE058
:1011800009688903EFE709688901ECE7FFF7AAFC22
:10119000A0EB0901514502D90320BDE8F087206882
:1011A000696800F00C00B0EB810FEFD1D8F80010A7
:1011B000404601F00F01B14207D90770006800F006
:1011C0000F00B04201D00120E7E72878400705D59D
:1011D0002068E96820F4E050084320602878000780
:1011E00006D52068296920F4604040EAC1002060EB
:1011F00000F036F82168084AC1F30311515CC84079
:10120000064908600020FFF709FF0020C5E700003D
:10121000003C024008380240A64400080C000020B0
:101220000448054900680968044AC1F38221515CF9
:10123000C84070470C00002008380240B64400083F
:101240000448054900680968044AC1F34231515C09
:10125000C84070470C00002008380240B64400081F
:10126000154810B5006810F00C02144813D014494A
:10127000042A0FD0082A0ED10F4C241F226823689D
:1012800002F03F025B0207D52068C0F38810A0FB84
:10129000010106E0084610BD2168C1F38811A1FBD9
:1012A00000010023FEF78CFF2168C1F30141491CB6
:1012B0004900B0FBF1F010BD083802400024F400F2
:1012C00040787D012DE9F84F050076D02878DFF8C9
:1012D000F8B2BE4CC00749D0DBF800105846C1F345
:1012E0008101012908D00068C0F3810002280AD1D9
:1012F000201D0068400206D52068800336D5686846
:101300000028E2D032E06868B0F5803F10D0B0F538
:10131000A02F206810D020F480302060206820F4B6
:10132000802020606868A0B1FFF7DCFB06460CE077
:10133000206840F48030F4E740F480202060F7E734
:10134000FFF7D0FB801B642873D820688003F7D593
:101350000CE0FFF7C7FB064605E000BFFFF7C2FB46
:10136000801B6428F0D820688003F7D42878DFF841
:10137000608280074FF000093ED5DBF80010584628
:1013800011F00C0F09D00068C0F3810002280BD1C6
:101390008D48001F0068400206D42068800715D5DC
:1013A000E868012809D111E0E868B8B10120C8F85F
:1013B0000000FFF797FB064605E002E1FFF792FB0E
:1013C000801B0228C0D820688007F7D520682969CB
:1013D00020F0F80040EAC10020600DE0C8F800905D
:1013E000FFF780FB064604E0FFF77CFB801B02282A
:1013F0001FD820688007F7D42878000722D5724EBE
:10140000744869696C3671B101210160FFF76AFBAC
:10141000074604E0FFF766FBC01B022809D83068C6
:101420008007F7D50EE0C0F80090FFF75BFB07469A
:1014300005E083E0FFF756FBC01B02287ED830682A
:101440008007F7D42878400768D5DFF87CA100270B
:101450000AF1380ADAF80000C0000BD4DAF80010FC
:1014600041F08051CAF80010DAF80000012700F0BE
:1014700080500090584E3068C00510D4306840F459
:1014800080703060FFF72EFB009005E0FFF72AFB2D
:101490000099401A022851D83068C005F6D54A4E46
:1014A000A868683601280FD00528306810D020F0D1
:1014B00001003060306820F004003060A868B8B1E6
:1014C000FFF710FB00900FE0306840F00100F4E7F8
:1014D00040F004003060F7E7FFF704FB0099411A81
:1014E00041F28830814264D830688007F4D50EE03C
:1014F000FFF7F8FA009007E0FFF7F4FA0099411AB5
:1015000041F28830814254D830688007F4D42FB13A
:10151000DAF8001021F08051CAF80010A869C0B3B1
:10152000DBF80010C1F3810102294AD002284846A5
:1015300007D0C8F86000FFF7D5FA00E039E00546AB
:101540003AE04746C8F86000FFF7CCFA064604E0E8
:10155000FFF7C8FA801B02282BD820688001F7D437
:10156000D5E907010843A96A1C4A490802EB014171
:101570006A6A41EA8211084395F82C1040EA016139
:101580001148001F016001203866FFF7ABFA0546DD
:1015900005E014E0FFF7A6FA401B022809D82068EE
:1015A0008001F7D50BE000BFFFF79CFA401B022833
:1015B00002D90320BDE8F88F20688001F4D4002010
:1015C000F8E70120F6E70000083802400038024042
:1015D00000004742800E4742007000400000FFFFBD
:1015E00010B5401EB0F1807F01D3012010BD4FF037
:1015F000E02460610F21601700F0E8FD0020A06189
:1016000007202061002010BD70B5040004D094F8BC
:101610003900002510B106E0012070BD84F8385073
:10162000204600F023F8242084F839002068C1689F
:1016300021F40051C160204600F0A6FB206801693A
:1016400021F4904101612068416921F02A01416142
:101650002068C16841F40051C160E563202084F82E
:10166000390084F83A00002070BD0000F0B587B062
:10167000044614216846FEF7DBFD1D4F22681D4914
:1016800002230124032507261B48BA4213D1194A15
:101690001432176847F010071760126802F0100242
:1016A00005920A6842F001020A60096801F001012E
:1016B0000591690215E0114FBA4217D10D4A103257
:1016C000176847F400371760126802F40032059279
:1016D0000A6842F001020A60096801F001010591FF
:1016E0000C218DE87A006946FFF724F907B0F0BDB8
:1016F0000010014030380240000002400044004029
:101700002DE9F843044690F839001F4616460D4669
:10171000202850D1A5B19EB194F8380001284AD0B4
:10172000012084F838004FF00008C4F83C802120E4
:1017300084F83900FFF7D6F9A6848146E68426E0CE
:101740000120BDE8F883E08C401EE084A0684B4691
:10175000B0F5805F4FF000024FF080012046009707
:1017600003D000F067FCE8B90DE000F063FCC8B9F5
:1017700028882168C0F308004860206908B16D1C02
:1017800005E0AD1C03E0216815F8010B4860E08C12
:101790000028D8D14B46002240212046009700F077
:1017A00049FC08B10320CCE7202084F8390084F8F4
:1017B00038800020C5E70220C3E7FEE701684A69D8
:1017C000D24352050FD46FF480624A61002140F881
:1017D000301F202242738173026942F004020261C9
:1017E000017301207047002070472DE9F84F04462F
:1017F000C06A1E4692460D4621680A6842F480621D
:101800000A60082807D0012805D010F5803F02D0D3
:10181000206B112804D12068016841F480710160B7
:101820004FF001185346002241462046009600F032
:10183000B1F8F0BB206908F10109B0F5804F0FD075
:101840000620216800EAD51747F0F000086133460A
:10185000524608F10701204600F0D0F848BB03E0EB
:10186000E8B240F001001BE02168E8B208613346AD
:1018700052464946204600F0C1F8D0B92068416977
:1018800081690091016841F4807101605346002232
:1018900041462046009600F07DF850B947F0F1002F
:1018A00021680861334652464946204600F0A6F8B2
:1018B00000E001E0002800D00120BDE8F88F000022
:1018C000F8B50446C06A1E460D461746082807D0DC
:1018D000012805D010F5803F02D0206B122804D1DA
:1018E0002068016841F480710160134600224FF0C6
:1018F00001112046009600F04DF808BB2069B0F5B4
:10190000804F0ED00620216800EAD51040F0F0008C
:10191000086133463A460B49204600F06FF878B923
:1019200002E005F0FE0000E0E8B221680861054928
:1019300033463A46891F204600F060F8002800D060
:101940000120F8BD0800010070B516460D4604469A
:101950000DE02046FFF732FF08B1012070BD681C82
:1019600005D0FFF7BFF8801BA84207D835B1206823
:101970004069C0434007ECD4002070BD002044F80B
:10198000300F20216173A073216941F02001216192
:101990002073E2E72DE9F0471E4690460D460446C7
:1019A000C1F30747DDF8209008E0701C06D0FFF770
:1019B00099F8A0EB0900B0420FD876B12068012F4A
:1019C00018D0806925EA00000004000C14D0002122
:1019D0004145EAD00020BDE8F087002044F8300FF0
:1019E00020216173A073216941F0200121612073DE
:1019F0000120F0E74069E5E70121E9E72DE9F0473B
:101A00009A4691460E46044600254FF02008C1F341
:101A1000074725E020684069C043400514D420688A
:101A2000016841F40071016021686FF480604861D1
:101A3000256384F83D8084F83E50206C40F004001B
:101A4000206484F83C501FE0B9F1FF3F08D0FFF755
:101A500049F8A0EB0A0149450CD8B9F1000F09D0AB
:101A60002068012F13D0806926EA00000004000CD2
:101A70000BD0CFE744F8305F84F80D80A573206960
:101A800040F02000206125730120BDE8F087406907
:101A9000EAE72DE9F041002590460E46044620274E
:101AA00017E04069C043C0060CD454F8301B6FF0F7
:101AB0001000486144F810596777A577206A2062C2
:101AC000257717E0FFF70EF8A0EB0800B04208D822
:101AD0003EB120684169C9434906E2D40020BDE80F
:101AE000F08144F8305F6773A573206940F02000EF
:101AF000206125730120F2E770B516460D460446B5
:101B00000DE02046FFF75AFE08B1012070BD681CA9
:101B100005D0FEF7E7FF801BA84207D835B1206843
:101B20004069C0430006ECD4002070BD002044F89A
:101B3000300F20216173A073216941F020012161E0
:101B40002073E2E777B581B015460E46642401AAFA
:101B50000123D02108480094FFF774F91420FEF700
:101B6000D7FEABB23246D02103480094FFF77AF893
:101B700004B0002070BD0000B40100203EB5052A6D
:101B800002DD6FF001003EBD8DF80400002001ABC6
:101B900003E00C5C1D18401C6C709042F9DB642063
:101BA000521C93B2009001AAD0210248FFF74AF9D3
:101BB00000203EBDB401002013B5C0B2012201A92E
:101BC000FFF7DCFF1CBD0000094808B5016841F0C3
:101BD00001010160016801F001010091016841F01B
:101BE00002010160006800F00200009008BD0000E2
:101BF000303802400D4810B50B4901600C49416076
:101C000000214FF480428160C0E90312416181618B
:101C1000C1610162FEF76CFF002803D0BDE81040EF
:101C2000FEF774BE10BD000000540040B401002057
:101C3000A08601000C4810B50A4901604FF4165106
:101C40004160002181600C22C160C0E90412816101
:101C5000C161FFF7D9FC002803D0BDE81040FEF7B2
:101C600055BE10BD00100140080200200C4810B500
:101C70000A4901604FF416514160002181600C2235
:101C8000C160C0E904128161C161FFF7BDFC002899
:101C900003D0BDE81040FEF739BE10BD004400403F
:101CA00048020020FEE7704770477047FFF794B97D
:101CB00030B593B030216846FEF7BAFA14210CA86B
:101CC000FEF7B6FA19480025016841F0805101601D
:101CD000006800F0805011901548016841F480417F
:101CE00001600068022400F48040119001200390FC
:101CF00010200490009406940820CDE90750A820F5
:101D0000CDE9090404200B906846FFF7DBFA0CA923
:101D10000F2081E831004FF4A0500F90E0021090A6
:101D200005210CA8FFF7E4F913B030BD403802409C
:101D3000007000401048016841F4700101600F48D4
:101D4000016841F0010101600C4A00210832116074
:101D500002680B4B1A400260031D0A4A1A600268AF
:101D600022F48022026005480C30016002495806C6
:101D7000803908607047000088ED00E000380240BC
:101D8000FFFFF6FE103000242DE9F0410446006804
:101D90000169E26821F44051114301612169A068A1
:101DA000E26908436169114322680843D16849F236
:101DB0000C6399430143D16020684169A26921F411
:101DC000407111434161E2696425B2F5004F9748C3
:101DD000974922684FF032083FD08A4201D08242B0
:101DE0007CD1FFF72DFA00EBC00101EB0010616818
:101DF0008900B0FBF1F6FFF723FA00EBC00101EB1D
:101E0000001061688900B0FBF1F0B0FBF5F06FF0F5
:101E10001801484306EB800108EB0110B0FBF5F018
:101E200000F0F006FFF70CFA00EBC00101EB001028
:101E300061688900B0FBF1F0B0FBF5F006EB00162D
:101E4000FFF7FEF900EBC00101EB001061688900AB
:101E5000B0FBF1F7FFF7F4F9D2E08A4201D08242F9
:101E60003DD1FFF7EDF900EBC00101EB0010616817
:101E70004900B0FBF1F0B0FBF5F00601FFF7E0F927
:101E800000EBC00101EB001061684900B0FBF1F705
:101E9000FFF7D6F900EBC00101EB001061684900C3
:101EA000B0FBF1F0B0FBF5F06FF01801484307EB21
:101EB000800108EBC100B0FBF5F000F0F80006EB84
:101EC0004006FFF7BDF900EBC00101EB00106168AF
:101ED0004900B0FBF1F7FFF7B3F93CE055E0FFF73D
:101EE0009FF900EBC00101EB001061684900B0FBF5
:101EF000F1F0B0FBF5F00601FFF792F900EBC0013D
:101F000001EB001061684900B0FBF1F7FFF788F9B9
:101F100000EBC00101EB001061684900B0FBF1F07B
:101F2000B0FBF5F06FF01801484307EB800108EBB8
:101F3000C100B0FBF5F000F0F80006EB4006FFF73B
:101F40006FF900EBC00101EB001061684900B0FBC4
:101F5000F1F7FFF765F900EBC00101EB00106168D4
:101F60004900B0FBF1F0B0FBF5F06FF01801484309
:101F700007EB800108EBC100B0FBF5F000F00700B3
:101F8000216830448860BDE8F081FFF749F900EB33
:101F9000C00101EB001061688900B0FBF1F6FFF7AA
:101FA0003FF900EBC00101EB001061688900B0FB54
:101FB000F1F0B0FBF5F06FF01801484306EB80013B
:101FC00008EB0110B0FBF5F000F0F006FFF728F980
:101FD00000EBC00101EB001061688900B0FBF1F07B
:101FE000B0FBF5F006EB0016FFF71AF900EBC001A5
:101FF00001EB001061688900B0FBF1F7FFF710F901
:1020000000EBC00101EB001061688900B0FBF1F04A
:10201000B0FBF5F06FF01801484307EB800108EBC7
:102020000110B0FBF5F000F00F00A9E7001401402B
:10203000001001402DE9F041984617460E4604462F
:10204000069D1DE0681C1BD02DB1FEF74BFDA0EBDB
:102050000800A84214D92068C16821F4D071C16079
:102060002068416921F001014161202084F8390094
:1020700084F83A00002084F838000320BDE8F0819D
:102080002068006836EA000004D00020B842D9D0A9
:102090000020F3E70120F9E730B505468DB00C4686
:1020A00010EE100AFEF76BFA41EC100B294653ECC8
:1020B000102B684600F05EF820680168C9434906A5
:1020C000FBD46846FEF7BFF882B24FF47A736946D4
:1020D0002046FFF715FB0DB030BD000010B58EB0E7
:1020E0000C4602460AA1684600F044F820680168E0
:1020F000C9434906FBD46846FEF7A5F882B24FF4FF
:102100007A7369462046FFF7FBFA0EB010BD000057
:1021100025342E34782C200070B5054608680C460E
:102120000168C9434906FBD42846FEF78CF882B201
:1021300029462046BDE870404FF47A73FFF7E0BAB5
:1021400010B514460A468EB00146684600F012F8F3
:1021500020680168C9434906FBD46846FEF773F856
:1021600082B24FF47A7369462046FFF7C9FA0EB07F
:1021700010BDFEE70FB4084B10B504A902AA0398DE
:1021800001F0BAF9044602A9002001F04CFD2046F6
:1021900010BC5DF814FB0000273C000803B4019854
:1021A0004100009850EAC12018BF04204A0D18BF12
:1021B00040F0010040F2FF72B2EB515F08BF40F007
:1021C0000200012808BF052002B070470907090E68
:1021D000002804DB00F1E02080F80014704700F0D4
:1021E0000F0000F1E02080F8141D7047000000008F
:1021F00070B59B482DED020B2DED068B079D25F04C
:102200000044A04218DC9748844202DC0AD10698B8
:1022100040B19DED060BBDEC068B02B0BDE87040F1
:1022200001F04EB8002DCCBF9FED8F0B9FED900BB2
:10223000BDEC068B02B070BD8F48A04215DD8F4803
:10224000A042D8BF4FF0FF3458DD9DED060B51EC96
:10225000100BFFF7A3FF042808BF01F065F89DED00
:10226000060BBDEC068B02B070BD9DED060B51EC6C
:10227000100B01F0B5FDCDE9060181489FED828B81
:10228000A0423CDD8248A0421FDD00249FED82ABCE
:102290009DED060B53EC1A2B51EC100BFDF7DAFFFA
:1022A0009DED060B41EC190B53EC1A2B51EC100B66
:1022B000FEF777F853EC182BFEF76DF853EC192B5B
:1022C000FEF7E1F8CDE9060149E09DED060B01249A
:1022D00053EC182B51EC100BFDF7BCFF9DED060BDA
:1022E00041EC190B53EC182B51EC100BFEF753F883
:1022F00053EC192BFEF7C7F8CDE906012FE068482B
:10230000A0421FDD02249FED689B9DED060B53EC60
:10231000192B51EC100BFEF744F853EC182BFDF77A
:1023200099FF9DED060B41EC180B53EC192B51EC6A
:10233000100BFEF730F853EC182BFEF7A4F8CDE99C
:1023400006010CE09DED060B032453EC102B9FEDD2
:10235000580B51EC100BFEF796F8CDE906019DEDF8
:10236000060B53EC102B51EC100BFEF71AF841EC56
:10237000180B53EC182BFEF714F841EC190B4E48D0
:102380000621B0EE490AF0EE690A784400F001FF38
:1023900053EC182B51EC100BFEF703F841EC180B23
:1023A0004648B0EE490AF0EE690A0521784400F08B
:1023B000F0FE53EC192B51EC100BFDF7F2FF41EC42
:1023C000100B51EC180B53EC102B002C0EDAFDF710
:1023D00041FF9DED061B53EC112BFDF7E2FF9DED38
:1023E000061B53EC112BFDF7D9FF35E0FDF732FF4B
:1023F0009DED061B53EC112BFDF7D3FF41EC100BA9
:102400002F48784400EBC40090ED001B51EC100BFA
:1024100053EC112BFDF7BFFF9DED061B53EC112B69
:10242000FDF7B9FF41EC100B2648784400EBC400DF
:1024300090ED001B51EC100B53EC112BFDF7AEFF90
:1024400041EC100B002DA2BFBDEC068B02B070BD9D
:1024500051EC100B81F0004141EC100B01E7000042
:10246000000010440000F07F182D4454FB21F93F78
:10247000182D4454FB21F9BF0000DC3F0000203E32
:102480000000F33F00000000000000000000F03FEB
:102490000000E63F000000000000000000000040D7
:1024A0000080034000000000000000000000F83F32
:1024B000000000000000F0BF9A2100005021000041
:1024C000DA200000922000002DE9F04D2DED040BE4
:1024D0002DED0E8B96B0DDE92550279CDDF890A000
:1024E00025F0004624F00048BAF1000F14BF012186
:1024F000002101EB4502FC4953184A1093422AD3AC
:10250000002814BF0123002303EB44030B44F749C5
:102510008B4220D358EA00019FEDF59B76D0DFF87F
:10252000D8B35D4503D1BAF1000F05D188E0BAF107
:10253000000F08BF002100D0012101EB450111F57A
:10254000001F08D8002814BF0121002101EB44011D
:1025500011F5001F0BD99DED261B9DED240B16B028
:10256000BDEC0E8B04B0BDE8F04D00F0B3BE00270B
:10257000002DBCBFE149884521DAE1498845A8BF63
:1025800002271CDAC3451ADCDE4901EB2851142965
:1025900008DDC1F1340220FA02F101FA02F28242AE
:1025A0000DD108E058B9C1F1140228FA02F101FA7C
:1025B00002F2424503D101F00101C1F1020756EADE
:1025C0000A0124D1002C22DA002D18BF022F01D0DD
:1025D000012F0AD0022000F0C7FE16B0BDEC0E8B12
:1025E00004B0BDE8F04D00F053BE022000F0BCFE88
:1025F00000F04EFE51EC100B81F0004141EC100B4D
:1026000016B0BDEC0E8B04B0BDE8F08D18E09FED68
:10261000BEAB9FEDBF8B002871D1B848804522D159
:1026200005F1804010F5801008BFBAF1000F07D007
:10263000B3450ADC002CA8BF9DED260BE0DA0DE0C7
:10264000B0EE490AF0EE690ADAE7002C06DA9DEDF1
:10265000260B51EC100B81F000416FE0AE4878443E
:1026600090ED000BCCE7D8454DD1002C48DA2EB1C7
:1026700086423AD1BAF1000F42D126E0BAF1000FFA
:1026800013D0022000F070FE00F03EFE8DED020B34
:102690009DED240B8DED000B10EE900A039961F374
:1026A0001E0003909DED020BAAE78DED02AB9DEDA0
:1026B000240B1AEE901A10EE900A8DED000B61F3C8
:1026C0001E0003909DED020B9AE78DED028B9DEDB0
:1026D000240B18EE901A10EE900A8DED000B61F3AA
:1026E0001E0003909DED020B8AE709DA9DED240B95
:1026F00051EC190B53EC102BFDF7C5FE1EE020E04A
:102700009DED240B7CE786421BDAB4F1804F0DD09F
:10271000A4F10050B0F1FF5013D1002D11DB9DED5D
:10272000240B51EC100B01F087FE07E09DED240B0C
:1027300053EC102B51EC100B00F0C2BC41EC100B11
:102740005EE79DED240B51EC100B01F049FBBAF153
:10275000000FCDE90E0142D19FED710B46B3A6F1FA
:10276000E040B0F17F600CD05E4538D1002D00DA3A
:10277000A7B3022F0CBF01204FF0FF30FEF771F816
:10278000DCE7002D01DD002C0DDA002D01DD002C31
:102790001FDB002D16DA002C14DB012F08BF9FED84
:1027A000620B3FF42DAFB0EE4A0AF0EE6A0A27E75B
:1027B000022F18BF002D0CD0012F0AD1002DFFF6DB
:1027C0001FAF06E0002DB8BF002C08DA012F3FF440
:1027D00017AFB0EE480AF0EE680A11E71BE00120DF
:1027E00000EBE57050EA070115D0791EB0EE498A7A
:1027F000F0EE698A084308BF9FED4D8B4E480025D7
:10280000804570DD4D494E48884514DDB0420DDBF2
:10281000002C19DB2FE0012000F0A6FD16B0BDEC66
:102820000E8B04B0BDE8F04D00F05EBDB34502DC98
:10283000002C09DC1FE0864202DA002C1BDA03E0E0
:102840005E452BDD002C16DD022000F08DFD00F032
:102850005BFD8DED020B53EC1A2B51EC180BFDF7C1
:10286000A0FDCDE900010399019861F31E000390DA
:102870009DED020BC4E6022000F076FD00F054FD51
:1028800010EE901A18EE900A8DED020B8DED008B74
:1028900061F31E0003909DED020BB1E69DED0E0B62
:1028A00053EC192B51EC100BFDF775FD9FED260B2A
:1028B000CDE9080153EC102B9DED080B51EC100BEA
:1028C000FDF76FFD9FED221B53EC112BFDF766FD0D
:1028D0009DED081B53EC112BFDF763FD9FED1E1BB7
:1028E00053EC112B3CE08CE0FFFF1F00FFFF0F00BB
:1028F000000000000000F03F0000F03F0000F07F0B
:102900000000404301FCFFFF000000000000F07FDA
:1029100000000000000000007E1F0000000000001A
:102920000000000000000080000000000000F0FF38
:10293000000000000000F0BF0000E0410000F04394
:10294000FFFFEF3F00000000000000000000D03F4C
:10295000555555555555D53F000000000000E03F46
:10296000FDF71CFD9DED080B41EC1A0B53EC102BF1
:1029700051EC100BFDF715FD53EC1A2BFDF711FD73
:1029800041EC1A0B9FEDFE0B53EC102B9DED080B49
:1029900051EC100BFDF705FD41EC1B0B9FEDFA0B05
:1029A00051EC1A0B53EC102BFDF7FBFC41EC1A0B0E
:1029B0009FEDF70B53EC102B9DED080B51EC100B1A
:1029C000FDF7EFFC53EC1A2BFDF7E5FC41EC1A0B7D
:1029D00051EC1B0B53EC1A2BFDF73CFC0690CDE998
:1029E00006519DED060B53EC1B2B51EC100BFDF724
:1029F000D2FC53EC1A2BFDF7D1FC41EC100B00F08C
:102A0000A1B90020B6F5801F0EDA9FEDE30B53EC61
:102A1000102B9DED0E0B51EC100BFDF7C2FCCDE918
:102A20000E016FF034000E4600EB2650A0F2FF3787
:102A3000C6F31300DA4940F07F6646F040568842FC
:102A4000D8BF002408DDD7498142C8BF012403DC78
:102A50000024A6F580167F1CD348784400EBC40000
:102A60000F9690ED00CB9DED0E0B53EC1C2B51EC13
:102A7000100BFDF790FC9DED0E0B41EC1B0B53EC86
:102A80001C2B51EC100BFDF7E5FB41EC100B51EC4E
:102A9000190B53EC102BFDF7F6FC41EC1D0B51EC20
:102AA0001B0B53EC1D2BFDF77CFC41EC1A0BBF48B4
:102AB0008DED10AB7844109590ED000B4FF0005069
:102AC00040EA660000EB84408DED080B00F5002025
:102AD00009909DED080B53EC1C2B51EC100BFDF7EE
:102AE0005AFC9DED0E1B53EC112BFDF757FC41ECEE
:102AF000100B53EC102B9DED100B51EC100BFDF750
:102B000050FC9DED080B41EC1C0B53EC102B9DED84
:102B1000100B51EC100BFDF744FC53EC1B2BFDF795
:102B20003DFC53EC1C2BFDF736FC53EC1D2BFDF745
:102B300038FC41EC1C0B53EC1A2B51EC1A0BFDF733
:102B400030FC41EC1B0B9A480621B0EE4B0AF0EE2C
:102B50006B0A784400F01DFBB0EE401AF0EE601AEC
:102B6000B0EE41DAF0EE61DA53EC1B2B51EC1B0BAB
:102B7000FDF717FC53EC1D2BFDF713FC9DED100B1F
:102B800041EC1B0B53EC1A2B51EC100BFDF762FBC5
:102B900053EC1C2BFDF705FC53EC1B2BFDF75AFBEC
:102BA0009DED100B41EC1B0B53EC102B51EC100B5B
:102BB000FDF7F7FB41EC1D0B9FED7FEB53EC1E2B5C
:102BC000FDF748FB53EC1B2BFDF744FB0890CDE9C8
:102BD00008519DED080B53EC1E2B51EC100BFDF72B
:102BE000DAFB53EC1D2BFDF7D6FB53EC1B2BFDF74B
:102BF000D5FB9DED080B41EC1D0B53EC102B9DED0F
:102C0000100B51EC100BFDF7CCFB41EC1B0B53EC04
:102C10001A2B51EC1D0BFDF7C4FB9DED080B41EC8D
:102C20001A0B53EC102B51EC1C0BFDF7BAFB53ECB9
:102C30001A2BFDF70FFB41EC1A0B51EC1B0B53EC5D
:102C40001A2BFDF707FB0C90CDE90C519DED0C0BF9
:102C500053EC1B2B51EC100BFDF79DFB53EC1A2B87
:102C6000FDF79CFB41EC1B0B9FED550B53EC102B20
:102C70009DED0C0B51EC100BFDF793FB41EC1A0B87
:102C80009FED510B51EC1B0B53EC102BFDF789FB07
:102C900041EC1B0B9FED4E0B53EC102B9DED0C0BE1
:102CA00051EC100BFDF77DFB53EC1B2BFDF7D2FA1B
:102CB00041EC100B4848784400EBC40090ED001B39
:102CC00051EC100B53EC112BFDF7C4FA41EC1B0B2C
:102CD0003846FDF7C6FDCDE9080153EC1B2B51EC3E
:102CE0001A0BFDF7B7FA41EC100B3C48784400EBA7
:102CF000C40090ED00CB51EC100B53EC1C2BFDF7F6
:102D0000A9FA9DED081B53EC112BFDF7A3FA0690D1
:102D1000CDE906519DED080B53EC102B9DED060BF4
:102D200051EC100BFDF737FB53EC1C2BFDF733FB7D
:102D300053EC1A2BFDF72FFB53EC1B2BFDF72EFB4F
:102D400041EC100B9DED261B53EC102B8DED001B61
:102D500000959DED260B51EC100BFDF722FB9DED30
:102D6000000B41EC1A0B53EC102B9DED260B51EC94
:102D7000100BFDF710FB9DED061B53EC112B2FE004
:102D8000000000604715F73FFE822B654715F73FAF
:102D900044DF5DF80BAE543E0000000000004043ED
:102DA0008E9803007AB60B00FA1A0000281B000068
:102DB000321A00000000000000000000000008407F
:102DC000000000E009C7EE3FFD033ADC09C7EE3F13
:102DD000F5015B14E02F3EBEBE180000781800001D
:102DE000FDF7DFFA53EC1A2BFDF734FA9DED060BD5
:102DF00041EC1A0B53EC102B9DED000B51EC100B1A
:102E0000FDF7CFFACDE90C019DED0C0B51EC1A0B3F
:102E100053EC102BFDF71EFACDE902010C46AA492E
:102E20008C422FDB611A084318D19DED0C0B53EC3B
:102E3000102B9DED020B51EC100BFDF7ACFA41ECA1
:102E40001B0B9FEDA30B51EC1A0B53EC102BFDF752
:102E500001FA53EC1B2BFDF72DFD2DD2022000F0C3
:102E600083FA00F051FA10EE901A18EE900A8DEDE8
:102E7000020B8DED008B61F31E0003909DED020BA4
:102E8000FFF7BEBB944A24F00041914214D393490A
:102E9000214408437FF4EFAC9DED0C0B53EC102B59
:102EA0009DED020B51EC100BFDF775FA53EC1A2B4C
:102EB000FDF700FD7FF6DFAC24F000408849894A29
:102EC000002601EB205182422BDA481C4FF480117E
:102ED00021FA00F02044844AC0F30A517A44A1F256
:102EE000FF3192ED000B814A8DED080BCA4020EABC
:102EF0000202C0F3130040F48010C1F1140120FA63
:102F000001F60992002CB8BF76429DED080B53ECF8
:102F1000102B9DED0C0B51EC100BFDF73CFACDE99D
:102F20000C019DED0C0B51EC1A0B53EC102BFDF723
:102F300091F99FED6F0B0890CDE9085153EC102BE0
:102F40009DED080B51EC100BFDF72BFA41EC1B0B20
:102F50009FED690B53EC102B9DED080B51EC100B02
:102F6000FDF71FFA9DED0C0B41EC1C0B53EC102BE5
:102F70009DED080B51EC100BFDF70DFA53EC1A2BDD
:102F8000FDF70CFA9FED5E1B53EC112BFDF709FAD0
:102F900053EC1C2BFDF75EF941EC1A0B51EC1B0BAB
:102FA00053EC1A2BFDF756F9CDE902019DED020B0A
:102FB00053EC1B2B51EC100BFDF7EDF953EC1A2BD6
:102FC000FDF7ECF99DED020B41EC1A0B53EC102BC5
:102FD00051EC100BFDF7E5F9CDE908014A489DEDEC
:102FE000080B0521784400F0D4F89DED081B51EC46
:102FF000100B53EC112BFDF7D4F99DED021B53EC94
:10300000112BFDF7CBF9CDE906019DED020B53EC39
:103010001A2B51EC100BFDF7C4F953EC1A2BFDF7EA
:1030200019F99FED3B0B41EC1A0B53EC102B9DED66
:10303000060B51EC100BFDF7AEF99DED060B41ECC4
:103040001B0B53EC102B9DED020B51EC100BFDF7FD
:10305000A8F953EC1B2BFDF716FA53EC1A2BFDF7CE
:103060009AF99DED021B53EC112BFDF794F953ECEB
:10307000192BFDF793F9CDE9020101EB065001157B
:103080000029C8BF039015DC9DED020B324651ECC0
:10309000100BFDF77EFBFFF781F8042808BF00F056
:1030A00043F932469DED020B51EC100BFDF771FB1D
:1030B000CDE902019DED020B51EC180B53EC102BE6
:1030C000FDF76FF9FFF73ABB0000904000000000E9
:1030D000FE822B654715973C00CC904000346F3F33
:1030E00001FCFFFF0000E03F00170000FFFF0F00A2
:1030F00000000000432EE63F396CA80C615C20BE46
:10310000EF39FAFE422EE63FD01500000000000025
:10311000000000000000004000B52DED048BB0EE73
:10312000409AF0EE609A83B051EC190BFDF748FB22
:1031300041EC180B18EE100A18EE901A8DED008B6A
:10314000002818BF0120084320F00040C0F17F6034
:1031500000F1E040C00F14D019EE101A19EE900AD9
:103160008DED009B002918BF0121084320F000408D
:10317000C0F17F6000F1E040C00F04BF012000F00B
:10318000F3F8B0EE480A03B0F0EE680ABDEC048B29
:1031900000BD70B504462DED028B4D1E00EBC50041
:1031A000B0EE408AF0EE608A90ED000B35F006003C
:1031B00017D053EC182B51EC100BFDF7F2F841EC43
:1031C000100B6D1E04EBC50090ED001B51EC100BB5
:1031D00053EC112BFDF73EF841EC100B35F00600D7
:1031E000E7D1022D36D0042D1CD0062D1CBFBDEC1E
:1031F000028B70BD53EC182B51EC100BFDF7D1F87E
:1032000094ED0A1B53EC112BFDF724F853EC182B0B
:10321000FDF7C7F894ED081B53EC112BFDF71AF8D6
:1032200041EC100B53EC182B51EC100BFDF7B9F8D7
:1032300094ED061B53EC112BFDF70CF853EC182BF7
:10324000FDF7AFF894ED040B53EC102BFDF702F8EB
:1032500041EC100B53EC182B51EC100BFDF7A1F8BF
:1032600094ED021B53EC112BFCF7F4FF53EC182BDD
:10327000FDF797F894ED001B53EC112BFCF7EAFFD8
:10328000BDEC028B41EC100B70BD00000000000093
:103290009FED070B10B553EC102B9FED070B51EC76
:1032A000100BFDF7F0F841EC100B10BD0000000012
:1032B0000000000000000000000000000000F03FDF
:1032C00010B553EC102B51EC100BFCF7C3FF41EC85
:1032D000100B10BD10B553EC112B51EC100BFCF77B
:1032E000B9FF41EC100B10BD9FED050B10B553EC71
:1032F000102B51EC100BFDF7C6F841EC100B10BD74
:1033000000000000000000009FED050B10B553EC1D
:10331000102B51EC100BFDF744F841EC100B10BDD5
:1033200000000000000000709FED050B10B553EC8D
:10333000102B51EC100BFDF734F841EC100B10BDC5
:10334000000000000000001002E008C8121F08C1C1
:10335000002AFAD170477047002001E001C1121F16
:10336000002AFBD170470000014908607047000047
:10337000100000202DE9FF5F82B00021DDE904305C
:10338000020DDDF840B0034318D044F61050A2F20D
:10339000FF3242431514119801281FD0A5EB0B00F2
:1033A000401C5FEA000A4FF000064E4FDFF83891EC
:1033B000B046504615D5CAF1000413E01198012417
:1033C0004AA3012801D16FEA0B010298119AC0E9C2
:1033D0000031C0E9024206B0BDE8F09FCBF1000029
:1033E000DFE704460021404A491842EB0450CDE98A
:1033F000001012E0E00707D032463B4640464946FF
:10340000FCF7CFFF8046894632463B4610461946B8
:10341000FCF7C7FF06460F466410002CEAD1DDE931
:103420000401DDE90023BAF1000F06DAFCF7B9FF69
:1034300042464B46FCF7B5FF05E0FDF724F842464F
:103440004B46FDF720F804460E460022284BFDF7B8
:1034500031FA03D84FF0FF30014607E00022254B38
:1034600020463146FCF7F6FEFDF70CFA102409E081
:10347000002C0ADB0A220023FCF7A2FE039B303259
:103480001A55641E50EA0102F2D1641C039AC4F179
:1034900011031444119A012A03D0012208430DD1CB
:1034A0000AE0084304D000204FF0110B119072E79E
:1034B000A3EB0B056D1E0DE05B4504DD4FF0000234
:1034C00005F1010504E003DA4FF00002A5F1010562
:1034D000002AECD002981199C0E90231C0E90045F8
:1034E00079E70000000014400000F03F30000000C9
:1034F0000000F0430000E03F2DE9FF4F95B09B46F0
:103500008946064600250FE2252877D10024274664
:10351000F84A0121059400E0044316F8013F203BDE
:1035200001FA03F01042F7D130782A2811D06FF059
:103530002F033078A0F13002092A16D8059A44F0FA
:10354000020402EB820203EB42021044761C059057
:10355000EFE759F8042B0592002A03DA504244F4AD
:103560000054059044F00204761C30782E2816D1C1
:1035700016F8010F44F004042A280DD06FF02F0232
:103580003078A0F13003092B09D807EB870302EB51
:103590004303C718761CF3E759F8047B761C307890
:1035A0006C280FD006DC4C2817D068280DD06A286C
:1035B00014D104E0742810D07A280FD10DE044F41F
:1035C00000140AE044F4801401E044F440147278DA
:1035D000824202D104F58014761C761C307866286D
:1035E0000BD013DC582877D009DC002875D045288B
:1035F000F6D04628F4D047281AD19DE118E0632878
:1036000035D0642879D0652812D195E1702873D01F
:1036100008DC6728F1D069286FD06E280DD06F289C
:1036200006D1B5E073282CD0752875D0782874D0D1
:103630005A46179990476D1C75E1C4F30250022851
:1036400009D003280DD0D9F8001004280DD00D6042
:1036500009F1040967E1D9F80010EA17C1E900523D
:10366000F6E7D9F800100D80F2E70D70F0E719F8D1
:10367000041B8DF8001000208DF80100EA4601209F
:1036800003E059F804AB4FF0FF3061074FF0000141
:1036900002D40DE008F101018846B9420FDA8045F5
:1036A000F8DB1AF808100029F4D108E008F101014C
:1036B00088468142FADB1AF808100029F6D10598ED
:1036C0005B46A0EB080721463846179A00F094FAAB
:1036D000284400EB080507E04DE029E10DE01AF869
:1036E000010B5A4617999047B8F10108F7D25B468B
:1036F00021463846179A13E142E00A220092C4F3A9
:1037000002524FF0000A022A08D059F804CB032ACB
:103710004FEAEC710AD00DE029E02AE009F1070137
:1037200021F00702F2E802C1914609E00FFA8CFC91
:103730004FEAEC71042A03D14FFA8CFC4FEAEC718A
:10374000002907DA0A460021DCF1000C61EB0201D6
:103750002D2202E0220504D52B228DF8042001221F
:1037600003E0E20701D02022F7E7904659E00A2162
:1037700002E010220DE010214FF0000A00910BE052
:1037800010224FF0000A44F004040827009203E0DE
:1037900008224FF0000A0092C4F30252022A05D018
:1037A00059F804CB0021032A08D009E009F10701E8
:1037B00021F00702F2E802C1914605E01FFA8CFCF5
:1037C000042A01D10CF0FF0C4FF00008220728D585
:1037D000702806D0009B83F0100353EA0A0305D03B
:1037E0000EE040228DF80420012208E05CEA01028C
:1037F00006D030228DF804208DF805000222904674
:10380000009B83F0080353EA0A030AD15CEA010231
:1038100001D1620705D530228DF804204FF0010850
:103820007F1E582804D034A003900EA802900DE00B
:1038300036A0F9E753466046009AFCF7C1FC84467F
:103840000398825C0298401E029002705CEA0100BC
:10385000F0D1029806A9081A00F1200A600702D5E3
:1038600024F4803400E00127574502DDA7EB0A006D
:1038700000E0002000EB0A01009005984144401A46
:103880000590E00306D45B462146179A059800F0A0
:10389000B3F90544002706E001A85A46C05D179910
:1038A00090476D1C7F1C4745F6DBE0030CD55B465B
:1038B0002146179A059800F09FF9054404E030204E
:1038C0005A46179990476D1C0099481E0090002990
:1038D000F5DC08E0029802995A460078491C0291EA
:1038E000179990476D1CBAF10001AAF1010AF1DCA9
:1038F00065E10000092801003031323334353637B4
:10390000383961626364656600000000303132332B
:1039100034353637383941424344454600000000CB
:1039200000F058F90544761C307800287FF4ECAD9F
:1039300019B02846BDE8F08F620700D4062709F1C8
:10394000070222F0070CFCE80223E14603F00048DE
:103950005FEA080C02D00FF2702C0DE05FEA045C05
:1039600002D50FF2682C07E05FEAC47C02D00FF2A8
:10397000602C01E0AFF2700C4FF0FF3823F00043F1
:10398000CDF850C065280CD006DC452809D0462863
:103990001DD047283DD13DE0662818D067287ED14C
:1039A00038E00021112F01DB112000E0781CCDE967
:1039B000000106A90EA8FFF7DDFCDDE90F010E9A54
:1039C00003910021009207F1010A04914DE04FF0AC
:1039D00000400097CDE9011006A90EA8FFF7CAFC28
:1039E000DDE90F0203920E9B11990022DDF80CA075
:1039F0000093049211B9791C00EB010AB7EB0A009D
:103A000004D4C0F1FF3007F1010A0490AAEB0700CB
:103A1000019044E0012F00DA01270021112F01DD80
:103A2000112000E03846CDE9000106A90EA8FFF7F5
:103A3000A1FCDDE90F010E9A03910021049100928F
:103A4000BA4621070CD40399514500DA8A46BAF1E7
:103A5000010F05DD009AAAF10101515C302908D05F
:103A6000B84202DA10F1040F06DA0121CDE90110A3
:103A700015E0AAF10101E9E7002805DC04990144F9
:103A80000491AAEB000102E0411C514500DD8A4689
:103A90000499401A401C01904FF00040029020070A
:103AA00004D40198504501DBCDF8048000208DF846
:103AB0004F0002980DF14F07B0F1004F25D02B2099
:103AC0000E9002984FF0020800280CDA4042029053
:103AD0002D200E9007E00A210298FCF77FFD30317F
:103AE000029007F8011DB8F10001A8F10108F2DC0D
:103AF00002980028EFD1791E0E980870307800F0F7
:103B0000200040F0450007F8020D12A8C01B00F18C
:103B100007081498007800B1012000EB0A01019811
:103B200001EBE07105984144401A401E0590E00306
:103B300006D45B462146179A059800F05DF80544C7
:103B40001498007818B15A46179990476D1CE003F5
:103B500024D55B462146179A059800F04DF8054498
:103B60001CE00498002807DBDDE90301884203DD3F
:103B70000098405C179901E0179930205A46904709
:103B8000049805F10105401C04900198401E019025
:103B900004D12E205A46179990476D1CBAF10001A6
:103BA000AAF1010ADDDC05E017F8010B5A46179966
:103BB00090476D1CB8F10001A8F10108F4DC5B46E8
:103BC0002146179A0598ABE62D0000002B00000057
:103BD000200000002DE9F041044600251E4617464E
:103BE000880404D405E039462020B0476D1C641ECB
:103BF000F9D52846BDE8F0812DE9F04104460025BD
:103C00001E469046C80301D5302700E020278804CF
:103C100004D505E041463846B0476D1C641EF9D511
:103C20002846BDE8F0810A68531C0B60107070478D
:103C300070B505462DED068B84B000F0C1FB0A245B
:103C40009FED568A564957A0F0EE488AB0EE489A42
:103C5000F0EE489AB0EE48AAF0EE48AAFEF75CFAF9
:103C60004F4A294655A0FEF76BFA4D4954A0FEF77E
:103C700053FA684600F07EFB0026684600F07AFBA7
:103C8000BDF9000000EE100ABDF90200B8EEC00A4E
:103C900030EE088A00EE100ABDF90400B8EEC00A42
:103CA00070EE288A00EE100ABDF90800B8EEC00ACE
:103CB00030EE099A00EE100ABDF90A00B8EEC00A0B
:103CC00070EE299A00EE100ABDF90C00B8EEC00A99
:103CD00030EE0AAA00EE100A6420B8EEC00A70EEB8
:103CE0002AAAFCF715FE761CA642C6DB00EE104A97
:103CF00034482B49F8EEC00A00EB850088EE200A14
:103D000000EE904AB8EEE01AC8EE810A01EE104AC1
:103D100080ED000A2B48B8EEC11A203000EB850078
:103D2000C9EE011A01EE104AC0ED000A2548B8EEAE
:103D3000C11A403000EB850089EE812A01EE104A5D
:103D4000C0ED001A1F48B8EEC11A603000EB8500C4
:103D5000CAEE012A01EE104A80ED002A1948B8EE99
:103D6000C13A803000EB85008AEE831AC0ED002A4C
:103D70001448A03000EB850080ED001A12A0FEF779
:103D8000CBF9074A29460DA0FEF7DAF904490CA041
:103D9000FEF7C2F904B0BDEC068B70BD0000000058
:103DA000480200205374617274696E672043616C2D
:103DB0006962726174696F6E203A200025640000A8
:103DC0000D0A0000F400002046696E697368696E90
:103DD000672043616C6962726174696F6E203A009A
:103DE00082B0CDE9000121F0004001909DED000B73
:103DF00002B051EC100B70472DED108B98B0FDF711
:103E0000F3F8FDF755FFFDF7DFFEFDF7F3FEFDF7D5
:103E100011FFFDF72BFFFE49FEA0FEF77DF9002400
:103E2000E0B200F0CDFA012201A97520FDF78AFE6B
:103E30000A20FCF76DFD9DF80450F549FAA0FEF745
:103E40006BF9F3492846FEF749F9F149F9A0FEF765
:103E500063F9012201A96C20FDF774FE0A20FCF72A
:103E600057FDEB49F4A0FEF757F99DF80400E84927
:103E7000FEF734F9E649EFA0FEF74EF900216B207A
:103E8000FDF79AFE0A20FCF743FDE0B2FFF7D0FEF3
:103E9000FCF728FEE1B29FEDEC0AF0EE402AB0EE0E
:103EA000402AF0EE401AB0EE401AF0EE400A00F060
:103EB00099FA641C062CB3DBE44E9FEDE5FB06F19A
:103EC000200706F1400806F1600906F1800A06F1B4
:103ED000A00B9FEDE10B9FEDE21B51EC100B53EC9F
:103EE000112BFCF75BFACDE9090104249FEDDE8B71
:103EF0009FEDDFCB204600F063FA0BA800F03AFA02
:103F0000FCF7F0FD05469FEDDC0ABDF9340000EE3C
:103F1000900ADA4800EB8400F8EEE00A90ED001A0F
:103F2000BDF9360070EEC10AC0EE80DA00EE900AEC
:103F3000D248203000EB8400F8EEE00A90ED001A41
:103F4000BDF9380070EEC10A80EE80DA00EE900A0A
:103F5000CA48403000EB8400F8EEE00A90ED001A09
:103F6000BDF92C0070EEC10AC0EE80AA00EE100A66
:103F7000BDF92E00B8EEC0AA00EE100ABDF930005F
:103F8000F8EEC09A00EE100AB8EEC09A19EE100AC8
:103F9000FCF7F5FA41EC100BB0EE4C1AF0EE6C1A8F
:103FA000FEF792FAB0EE40BAF0EE60BA19EE900A5F
:103FB000FCF7E5FA41EC100BB0EE4C1AF0EE6C1A7F
:103FC000FEF782FA53EC1B2B51EC100BFCF742F975
:103FD00041EC100BFFF7A0F8B0EE40BAB1EE4A0A80
:103FE000F0EE60BA10EE100AFCF7C9FA53EC1B2B86
:103FF000FCF749FA41EC100BFEF7FAF853EC182BDA
:1040000051EC100BFCF7CDF9FCF7CCFA0EEE100AD0
:1040100019EE100AFCF7B3FA41EC100BB0EE4C1A93
:10402000F0EE6C1AFEF750FAB0EE40BAF0EE60BA5D
:104030001AEE100AFCF7A3FA41EC100BB0EE4C1A82
:10404000F0EE6C1AFEF740FAB0EE401AF0EE601A8D
:1040500053EC1B2B51EC110BFCF7FCF841EC100B53
:10406000FFF75AF8B0EE40BAF0EE60BA19EE900AD7
:10407000FCF785FA53EC1B2BFCF705FA41EC100B0F
:10408000FEF7B6F853EC182B51EC100BFCF789F93E
:10409000FCF788FA0AEE100A9FED6B0A8DED110A03
:1040A00056F82400281AFCF75DFAB0EE4F1AF0EE2D
:1040B0006F1A53EC112BFCF7E6F9FCF773FA09EED3
:1040C000100A07EB8400D0ED00EA08EB840090EDC5
:1040D000000A09EB84004DEE89EA0DEE090A8DED28
:1040E000050AD0ED009A0AEB840090ED000A0BEB74
:1040F00084004AEE899A0DEE890A8DED030AD0ED0F
:1041000000DA5E48803800EB84004DEE09DA90ED6D
:1041100000DA0AEE89DADFED5AAA1AEE100AFCF785
:104120002EFA41EC110BDDE9090153EC112BFCF7E0
:1041300038F92AEEAE0A41EC1B0B10EE100AFCF720
:104140001EFA53EC1B2BFCF785F8FCF72BFA0EEE4E
:10415000900A1EEE100AFCF712FA41EC110BDDE991
:10416000090153EC112BFCF71CF99DED050A41ECFC
:104170001B0B2AEE800A10EE100AFCF700FA53EC33
:104180001B2BFCF767F8FCF70DFA0AEE900A2146A4
:10419000F0EE4D2AB0EE6D2ADDED031AB0EE691A8D
:1041A000F0EE6A0AB0EE6E0A284600F01BF91849D4
:1041B00034A0FDF7B1FF164A214634A0FDF7C0FF39
:1041C000134933A0FDF7A8FFBDEEC90A104A10EE4F
:1041D000100A01B22DA0FDF7B3FF0D492EA0FDF787
:1041E0009BFF0B49B0EE4A0A2DA0FDF755FF084989
:1041F0002DA0FDF791FF0649B0EE4E0A28A0FDF76D
:104200004BFF034928A0FDF787FF01494EE000005E
:1042100048020020537461727420636F6D6D756E77
:10422000696361746500000057484F5F414D5F4905
:104230003A2000000D0A00005057525F4D474D5480
:104240005F323A200000000000000000140000204F
:104250000000000000408F40000000E051B8EE3F39
:10426000000000000000F03F000000C0DDA54C4051
:104270000000000000000040000003435401002043
:104280008FC2753F496E6465783A2000256400004E
:1042900044454C3A20000000234143433A000000CB
:1042A000252E3266000000002C0000009DED110A52
:1042B000AFF21400FDF7F0FE29492AA0FDF72CFF0C
:1042C00027499DED030AAFF22800FDF7E5FE2449DA
:1042D000AFF22C00FDF720FF2149B0EE6D0AAFF2DE
:1042E0004000FDF7D9FE1E49AFF24400FDF714FF70
:1042F0001B49B0EE4D0AAFF25800FDF7CDFE18494C
:104300001AA0FDF709FF1649B0EE6E0AAFF2700071
:10431000FDF7C2FE1249AFF27000FDF7FDFE104935
:10432000B0EE6A0AAFF28800FDF7B6FE0C49AFF2B4
:104330008800FDF7F1FE0A49B0EE690AAFF2A0006D
:10434000FDF7AAFE0649AFF21410FDF7E5FE0520C1
:10435000FCF7DEFA641CE4B2052CFFF4CBADC4E537
:1043600048020020234759523A0000002346494C96
:104370003A00000010B5044601460E223B20FDF72E
:10438000E1FB01462078627822706070A078E278C4
:10439000A270E0702079627922716071A079E2796F
:1043A000A271E071207A627A22726072A07AE27A57
:1043B000A272E072207B627B22736073084610BD9C
:1043C0001CB507280BD80121814064208DF804100A
:1043D0000090012301AAE0210148FCF733FD1CBD38
:1043E000B4010020134A42F8210002F1200000EB42
:1043F000810080ED000A02F1400000EB8100C0ED79
:10440000000A02F1600000EB810080ED001A02F169
:10441000800000EB8100C0ED001A02F1A00000EB6B
:10442000810080ED002A02F1C00000EB8100C0EDA8
:10443000002A70471400002000B52DED048B83B0D6
:1044400041EC190BFCF7BCF941EC180B18EE100A03
:1044500018EE901A8DED008B002818BF012008433C
:1044600020F00040C0F17F6000F1E040C00F14D0A8
:1044700019EE101A19EE900A8DED009B002918BF55
:104480000121084320F00040C0F17F6000F1E040CE
:10449000C00F04BF0120FEF767FF51EC180B03B0FB
:1044A000BDEC048B00BD0000000000000000010214
:1044B00003040607080900000000010203040000CD
:1044C0004FBB610567ACDD3F182D4454FB21E93F2C
:1044D0009BF681D20B73EF3F182D4454FB21F93F1B
:1044E000E2652F227F2B7A3C075C143326A6813CA1
:1044F000BDCBF07A8807703C075C143326A6913C4C
:10450000C4EB98999999C9BF711623FEC671BCBFB7
:104510006D9A74AFF2B0B3BF9AFDDE522DDEADBF1F
:104520002F6C6A2C44B4A2BF0D5555555555D53F37
:10453000FF8300922449C23F6E204CC5CD45B73F52
:10454000513DD0A0660DB13FEB0D76244B7BA93FCA
:1045500011DA22E33AAD903F000000000000F03F86
:10456000000000000000F83F000000000000000014
:104570000000004003B8E23F00000000000000001F
:1045800006D0CF43EBFD4C3E033333333333E33FAD
:10459000FFAB6FDBB66DDB3F4D268F515555D53FD9
:1045A00001411DA96074D13F65DBC9934A86CD3FA7
:1045B000EF4E454A287ECA3F3E5555555555C53F95
:1045C00093BDBE166CC166BF2CDE25AF6A56113F87
:1045D000F16BD2C541BDBBBED0A4BE726937663E89
:1045E0000000000000000000084600080000002055
:1045F00014000000483300081C4600081400002086
:10460000740600005833000801000000100000008C
:0C461000000000000024F4000000000086
:040000050800018965
:00000001FF
